:020000040000fa
:080000000001040000000000f3
:020000040000fa
:100200006f80200000ff2000000188000000000037
:100210000c000700a065200001002000110007006d
:10022000000020000000e000020032000000020098
:10023000000000003e040200000000000040da0060
:100240000000fe004440a900000020000000e00083
:100250000300320000002000a00188004440a800f4
:100260000000060091018800800078000000eb008b
:1002700015003700e280400032a0b4009101ba00be
:10028000e280400032a0b4009102ba00e280400057
:1002900032a0b4000002eb00472bde00f507b200ed
:1002a000602ce10004003a000059eb008301e900f2
:1002b000fdff3e00040037006128e100010032002c
:1002c0000082eb00040007001101ba000200e00008
:1002d000e8ff3a00000006003159ba008301e90046
:1002e0000c0032002159ba008301e90008003200f5
:1002f0000400e00003003a00e280400032a0b400b5
:10030000f5ff370011d9ba008301e900faff3a007e
:100310008100e800e180400032a0b4000000060047
:020000040000fa
:0200000401f009
:04000000e0fb000021
:020000040000fa
:0200000401f009
:04000400ff7f00007a
:020000040000fa
:0200000401f009
:040008006d7f000008
:020000040000fa
:0200000401f009
:04001400ffff0000ea
:020000040000fa
:100008006206000062060000620600006206000048
:100018006206000062060000620600006206000038
:1000280062060000620600006206000090010000ff
:100038006206000062060000a0010000b001000096
:1000480062060000c00100006206000062060000af
:1000580062060000620600006206000062060000f8
:1000680062060000620600006206000062060000e8
:1000780062060000620600006206000062060000d8
:1000880062060000620600006206000062060000c8
:1000980062060000620600006206000062060000b8
:1000a80062060000620600006206000062060000a8
:1000b8006206000062060000620600006206000098
:1000c8006206000062060000620600006206000088
:1000d8006206000062060000620600006206000078
:1000e8006206000062060000620600006206000068
:0800f800620600006206000030
:020000040000fa
:100108006206000062060000620600006206000047
:100118006206000062060000620600006206000037
:1001280062060000620600006206000090010000fe
:100138006206000062060000a0010000b001000095
:1001480062060000c00100006206000062060000ae
:1001580062060000620600006206000062060000f7
:1001680062060000620600006206000062060000e7
:1001780062060000620600006206000062060000d7
:1001880062060000620600006206000062060000c7
:1001980062060000620600006206000062060000b7
:1001a80062060000620600006206000062060000a7
:1001b8006206000062060000620600006206000097
:1001c8006206000062060000620600006206000087
:1001d8006206000062060000620600006206000077
:1001e8006206000062060000620600006206000067
:0801f80062060000620600002f
:020000040000fa
:10032000801f78000000fa008460a90010002000ff
:10033000004088000080fa004f007800004006006e
:10034000801f78000000fa0084c0a900100020007f
:10035000104088000080fa004f007800004006003e
:10036000801f78000000fa0084e0a900100020003f
:10037000204088000080fa004f007800004006000e
:10038000801f78000000fa008520a9000ec2bf007f
:10039000614060000004e000fcff3a000080fa00c9
:1003a0004f007800004006000400fa000000eb0057
:1003b000100798000a0037000000eb00000f7800db
:1003c000010037001e0fe800f05b20009e0f1000b8
:1003d000fcff34001e0090000000e80010079800a9
:1003e0009e009000c0072000808f5000f2ff340074
:1003f0000080fa00000006000400fa000000eb0094
:10040000100798000a0037000000eb00000f78008a
:10041000010037001e0fe800f05b20009e0f100067
:10042000fcff34001e0090000000e8001007980058
:100430009e009000e0032000808f5000f2ff340007
:100440000080fa00000006000400fa000000eb0043
:10045000100798000a0037000000eb00000f78003a
:10046000010037001e0fe800500920009e0f100009
:10047000fcff34001e0090000000e8001007980008
:100480001e009000e50f5000f3ff34000080fa00da
:10049000000006000400fa000000eb0010079800be
:1004a0000a0037000000eb00000f78000100370061
:1004b0001e0fe800900320009e0f1000fcff340088
:1004c0001e0090000000e800100798001e00900039
:1004d000e20f5000f3ff34000080fa000000060035
:1004e0000400fa000000eb00100798000a00370033
:1004f0000000eb00000f7800010037001e0fe8003d
:10050000a00120009e0f1000fcff34001e00900090
:100510000000e800100798001e009000e20f500055
:10052000f3ff34000080fa00000006000000fa002b
:10053000a1e2a800a022a800000000000000000026
:100540000000000000000000a022a900a0c2bf001f
:10055000614060000004e000fcff32000080fa000f
:10056000000006000000fa00a1e2a800a022a800f6
:10057000000000000000000000000000000000007b
:10058000000000000000000000000000000000006b
:100590000000000000000000a022a900a0c2bf00cf
:1005a000614060000004e000fcff32000080fa00bf
:1005b000000006000200fa00170037000ec2bf005c
:1005c000684060000004e00003003200a00a200040
:1005d000000f7800170037000ec2bf0064406000b3
:1005e0000004e00003003200b00b2000000f780090
:1005f000100037000ec2bf00624060000004e0003f
:10060000050032000e22a900901080000080fb003f
:10061000000f7800070037000ec2bf006140600085
:100620000004e000e5ff3200901080000080fb0035
:10063000000f78001e0078000080fa00000006001d
:100640000000fa000fc2bf00624060000004e0003a
:10065000fcff3a000080fa00000006000200fa00e9
:10066000004f78001e80fb00801088000080fa0098
:10067000000006000000fa000000eb00900888006f
:100680000000eb00204088000000eb0050088800cc
:10069000f01f21007008880084e0a9008ce0a80009
:1006a00013e1a8000080fa00000006000000fa0034
:1006b0000000eb00900888000000eb00204088005c
:1006c0000000eb005008880090c9200070088800e6
:1006d00084e0a9008ce0a80013e1a8000080fa00e3
:1006e000000006000000fa00000000000080fa0090
:1006f000000006000000fa00204080000000e0003a
:10070000fdff32000000eb002040880013e1a9004b
:100710008ce0a9000080fa00000006000000fa004a
:10072000204080000000e000fdff32000000eb00f0
:100730002040880013e1a9008ce0a9000080fa00a5
:10074000000006000000fa0009c2bf0001c8b300a3
:10075000014060000004e000fbff3a000080fa0066
:10076000000006000000fa0009c2bf000044b20009
:100770000004e000fcff3a000080fa0000000600e0
:100780000000fa000602a80006c2bf006140600037
:100790000004e000fcff3a000080fa0000000600c0
:1007a0000000fa000642a80006c2bf0064406000d4
:1007b0000004e000fcff3a000080fa0000000600a0
:1007c0000000fa000622a80006c2bf0062406000d6
:1007d0000004e000fcff3a000080fa000000060080
:1007e0000000fa0006a2a9000682a80006c2bf0007
:1007f000704060000004e000fcff3a000080fa0056
:10080000000006000000fa0006a2a8000682a80068
:1008100006c2bf00704060000004e000fcff3a0028
:100820000080fa00000006000200fa000662a8003c
:1008300006c2bf00684060000004e000fcff3a0010
:1008400000c2bf00004f78001e80fb000080fa004d
:10085000000006000200fa00004f7800801f7800b8
:100860001e40780002e2b7004f007800bdff07008d
:10087000b4ff07000080fa00000006004400fa0000
:10088000881f780000032000301688001003200025
:100890005016880000002400601688000000220026
:1008a000801688001000200090168800100020009c
:1008b000b016880090002000501088000000290029
:1008c0003010880010002000201088000000eb008d
:1008d000001588000000eb001015880010002000b3
:1008e00020158800f00f2000401588000000eb0064
:1008f00050158800ca42a800abfe0700ca42a900f2
:10090000a9fe0700d4c2bf00614060000004e000ff
:10091000fcff3a00ca22a800a3fe0700ca22a900d1
:10092000a1fe0700ca42a8009ffe0700ca42a90014
:100930009dfe0700ca62a8009bfe0700ca62a900cc
:1009400099fe0700d4c2bf00614060000004e000cf
:10095000fcff3a0094fe07000040eb00304798008f
:1009600087ff070000cdb300baff070050c7b300f0
:10097000b8ff070092ff070010cdb300b5ff0700d6
:10098000a9ff0700304798009eff070084ff07007b
:10099000be40900080c6b30080cf500004003200fb
:1009a000ca42a80094fe0700ca42a90092fe0700ae
:1009b00073ff070000cdb300a6ff070090c1b3008e
:1009c000a4ff070090c0b300a2ff070074ff070058
:1009d0006bff070000cdb3009eff0700a0c1b3006e
:1009e0009cff070030c0b3009aff07006cff0700b0
:1009f00063ff070000cdb30096ff0700b0c6b30049
:100a000094ff070010c0b30092ff070064ff0700c7
:100a100065fe0700ca42a80063fe0700ca42a9009b
:100a200061fe0700d4c2bf00614060000004e00026
:100a3000fcff3a000000eb00200888000000eb00fb
:100a400000088800f0472000100888008460a90092
:100a50000000eb0000408800ca42a800000120000e
:100a6000200888008c60a8000040eb002047980018
:100a700005e1a8000000eb00000f7800000037003f
:100a8000004080000000e000fdff32000000eb00ad
:100a900000408800400220009e0f100002003a0033
:100aa000ca02a900f3fe070035ff070000cdb3001e
:100ab00068ff0700b0c3b30066ff070040ff0700f0
:100ac00010cdb30063ff07000000eb002007980083
:100ad0000a0037002e04900053ff07008040780082
:100ae0006600470000004400014878003cff070012
:100af0002e0090000000e800200798002e009000d3
:100b0000ec0f5000f3ff34002e04900046ff070066
:100b100080407800660047000000440001487800eb
:100b200038ff07001eff07000000eb0020079800b9
:100b30000c0037001e017800ae00900066004700f0
:100b400000804000904078007400470000004100a1
:100b5000014878001e0fe8002e0090000000e80019
:100b6000200798002e009000e50f5000f1ff3400a0
:100b700080002000200798000c0037001e0178003c
:100b8000ae00900066004700008040009040780072
:100b90007400470000004100014878001e0fe80083
:100ba0002e0090000000e800200798002e00900022
:100bb000ed0f5000f1ff3400000320009e0f1000e5
:100bc000afff3a00cbfe07002e4090000080fb00f4
:100bd000170007000000eb0020079800090037000d
:100be000ae00900074004700008040001040780084
:100bf0000080fb000e0007002e0090000000e800bf
:100c000020079800ae009000f0022000808f500076
:100c1000f3ff3400ca02a8002e4090000040e80014
:100c2000204798000000eb00000f780094ff370089
:100c3000d1a2a900801f7800811f780081002000c8
:100c4000000000000000a7003406040000000000bf
:100c5000d1a2a9000000d1008100e900f9ff3a000b
:100c60004006040000000000d1a2a8000000d1004e
:100c70008100e900f3ff3a000000000000000000de
:100c80000000000000000000d1a2a8000000000049
:100c90000000000000000000cf0078004f00780046
:100ca00000000600cfc2af005206040000000000a2
:040cb000000006003a
:020000040000fa
:100cb4000008000006000000000000000000000022
:020000040000fa
:040cc4000000fe002e
:00000001FF
